:020000040800F2
:10000000D00500209D010008A31F0008031C000864
:10001000A11F000851080008252600080000000064
:10002000000000000000000000000000E11F0008C8
:100030004D09000800000000A51F00082D20000841
:10004000B7010008B7010008B7010008B7010008B0
:10005000B7010008B7010008B7010008B7010008A0
:10006000B7010008B7010008B7010008B701000890
:10007000B7010008B7010008B7010008B701000880
:10008000B7010008B7010008B7010008B701000870
:10009000B7010008B7010008B7010008B701000860
:1000A000D5200008B7010008B7010008B701000813
:1000B000B7010008B7010008B7010008B701000840
:1000C000B7010008B7010008B7010008B701000830
:1000D000B7010008B7010008B7010008B701000820
:1000E000B7010008B7010008B7010008B701000810
:1000F000B7010008B7010008B7010008B701000800
:10010000B7010008B7010008B7010008B7010008EF
:10011000B7010008B7010008B7010008B7010008DF
:10012000B7010008B7010008B7010008B7010008CF
:10013000B7010008B7010008B7010008B7010008BF
:10014000B7010008B7010008B7010008B7010008AF
:10015000B7010008B7010008B7010008B70100089F
:10016000B7010008B7010008B7010008B70100088F
:10017000B7010008B7010008B7010008000000003F
:10018000B7010008B7010008DFF80CD000F03CFB15
:1001900000480047A12F0008D005002006488047EE
:1001A00006480047FEE7FEE7FEE7FEE7FEE7FEE75C
:1001B000FEE7FEE7FEE7FEE7C5200008890100082C
:1001C0002DE9F05F0546002092469B46884606468C
:1001D000814640241BE0284641464746224600F01F
:1001E00097F953465A46C01A914110D31146184602
:1001F000224600F07EF92D1A67EB01084F46224691
:100200000120002100F075F917EB00094E41201E76
:10021000A4F10104DFDC484631462A464346BDE8E6
:10022000F09FD2B201E000F8012B491EFBD27047CB
:100230000022F6E710B513460A4604461946FFF7B2
:10024000F0FF204610BD2DE9FE4F81EA030404F0C3
:10025000004421F0004100944FF0000B23F00043D4
:1002600050EA01045ED052EA03045BD0C3F30A549F
:10027000C1F30A552C44A4F2F3340194A0FB0254B8
:10028000C1F3130141F48011C3F3130343F480134A
:1002900001FB024400FB034E840A970A44EA81549E
:1002A00047EA8357A4FB076802958D0A05FB07857B
:1002B0004FEA932C04FB0C542705029D4FEA065885
:1002C00047EA1637B5EB08056EEB070C870E920E62
:1002D00047EA811742EA8312A7FB0201B6EB0B0142
:1002E00064EB00042B0D43EA0C335E1844EB1C5006
:1002F000DA465146E7FB0201C5F313044FEA0B331C
:1003000043EA14534FEA0432019C43EA0603A4F182
:100310000C040294009CCDE900B400F04FF903B046
:10032000BDE8F08F00200146F9E72DE9F04D81EAA4
:10033000030404F0004B21F0004514464FF0000A7E
:1003400023F0004150EA050220D054EA01021DD0FA
:10035000C5F30A570246C5F31303C1F31300C1F3F3
:100360000A5640F4801543F48013A7EB0608101BCF
:10037000D64608F2FD3873EB050002D308F10108F8
:1003800001E092185B41B8F1000F03DA002001464A
:10039000BDE8F08D00204FF48011064684460EE043
:1003A000171B73EB050705D3121B63EB050306430D
:1003B0004CEA010C49084FEA300092185B4150EAC0
:1003C0000107EDD152EA030012D082EA040083EA69
:1003D0000501084305D0101BAB4106D201220023C2
:1003E00006E000224FF0004302E06FF001025310DC
:1003F0001AEB06004CEB085110EB0A0041EB0B0125
:10040000BDE8F04D00F0CBB80EB5C10F80EAE0704A
:100410000844CA07002140F233438DE80E000A4623
:100420000B4600F0CBF803B000BD70B5C1F30A5223
:1004300001F000450024C1F3130140F2FF3341F401
:1004400080119A4201DA002070BD40F233439A4293
:10045000A2F2334203DC524200F05AF800E090402E
:100460002C43F1D0404270BD00F0004230F000401B
:100470000AD0C10D01F56071C0F3160042EA0151C6
:10048000C20840071143704700200146704701F041
:10049000004330B421F0004150EA010206D00A0DB9
:1004A000A2F56072C1F31301002A02DC30BC002007
:1004B0007047440F44EAC104C100E01830BC00EBAF
:1004C000C25000F035B830B50B460146002020225E
:1004D000012409E021FA02F59D4205D303FA02F551
:1004E000491B04FA02F52844151EA2F10102F1DCB1
:1004F00030BD202A04DB203A00FA02F100207047C8
:100500009140C2F1200320FA03F319439040704751
:10051000202A04DB203A21FA02F00021704721FA58
:1005200002F3D040C2F120029140084319467047BF
:100530000029A8BF7047401C490008BF20F00100F7
:10054000704710B4B0FA80FC00FA0CF050EA0104D5
:1005500004BF10BC704749B1CCF1200421FA04F467
:1005600011FA0CF118BF012121430843A3EB0C0140
:10057000CB1D4FEA00614FEA102042BF002010BCA3
:10058000704700EBC35010440029A4BF10BC704753
:10059000401C490008BF20F0010010BC704710B596
:1005A000141E73F1000408DA401C41F10001921896
:1005B0005B411A4301D120F0010010BD2DE9F04D3F
:1005C00092469B4611B1B1FA81F202E0B0FA80F294
:1005D00020329046FFF78DFF04460F4640EA0A009E
:1005E00041EA0B0153465A46084313D0114653EAD9
:1005F000010019D0C8F140025046FFF789FF0546B7
:100600000E46504659464246FFF773FF084305D051
:10061000012004E020463946BDE8F08D0020054366
:1006200046EAE0762C4337430A986305E40AA0EBD8
:1006300008000022FD0A44EA47540A3002D500208F
:100640000146E9E7010510196941DDE9084500198E
:100650006941BDE8F04DA2E72DE9FE4F804681EAF1
:100660000300C00F0C46009021F0004123F000452C
:10067000B8EB0200A94105D24046214690461C46EF
:100680000B46024623F00040104347D0270DC7F326
:100690000A00C3F30A510290401A019040286BDA15
:1006A000C3F3130040F4801B0098924620B100234E
:1006B000D2EB030A63EB0B0B01985946C0F14002E1
:1006C0005046FFF716FF06460D4650465946019A1A
:1006D00000F0ACF810EB08006141002487EA1152E9
:1006E00084EAE7731A4340D0009A62B3019A012A60
:1006F0004FEA075215DC001B61EB02014FF000428C
:1007000002EA0752CDE90042001C41F58011324651
:100710002B46FFF753FF03B0BDE8F08F404621465C
:10072000F9E7001B61EB0201001C41F58013001882
:100730005B412018A2F5001747EB030140EAD57092
:10074000B6196D4111E06D084FEA360645EAC075ED
:100750004FEA0752001B61EB0201001C41F58011BA
:1007600049084FEA30000019514132462B4603B088
:10077000BDE8F04FFFF713BF0098012240000023AF
:10078000D0EB020263EBE073009821464FEAE0747D
:10079000B8EB000061EB0401E9E783F000435BE79D
:1007A00081F0004158E7C1F30A52C1F3130140F24E
:1007B000FF3341F480119A4202DA0020014670476B
:1007C00040F233439A42A2F2334202DC5242FFF734
:1007D0009FBEFFF78EBE000030B5041E71F100040D
:1007E00004DB4FF00044404264EB0101141E73F13E
:1007F000000405DB1C464FF00043524263EB040348
:10080000994208BF904230BD064C074D06E0E068B3
:1008100040F0010394E8070098471034AC42F6D347
:10082000FFF7B6FC3030000850300008202A06DB05
:10083000CB17203A41FA02F043EAE07306E041FAAE
:1008400002F3D040C2F1200291400843194670479C
:10085000FEE70000144810B500688000FFF7D4FDE3
:100860009FED121B53EC112BFFF7EDFC9FED111BBD
:1008700053EC112BFFF7E7FC9FED101B53EC112BF2
:10088000FFF753FDFFF7D1FD0E49086001460E4802
:10089000006801F0B7F90D4C206002F065FB20689C
:1008A000BDE8104001F09EBB3400002000000000B5
:1008B0000000194000000000000026400000000079
:1008C0000070B740480000204000002038000020A1
:1008D000144810B500688000FFF796FD9FED121BCD
:1008E00053EC112BFFF7AFFC9FED111B53EC112BB9
:1008F000FFF7A9FC9FED101B53EC112BFFF715FD23
:10090000FFF793FD0E49086001460E48006801F0AC
:10091000B3F90D4C206002F035FB2068BDE81040B3
:1009200001F072BB30000020000000000000194000
:100930000000000000002640000000000070B740EA
:100940004C000020440000203C000020704772B69C
:10095000FEE7000004480168486A044A00B21060DB
:1009600000224A6270470000B00000200000002012
:1009700004480168486A044A00B2106000224A62D2
:100980007047000068000020000000202DE9F84FAB
:10099000DFF8BCA1002201250AF1040B03264FF069
:1009A0000F090BF1040E00BF0B6805FA02F4234097
:1009B000A34270D10F7907F00307012F01D0022F56
:1009C00016D187684FEA420806FA08FC27EA0C07A6
:1009D000D1F80CC00CFA08FC4CEA070CC0F808C0AF
:1009E0004768A7430C79C4F3001494403C43446027
:1009F0000C79E443A4070AD0C4684FEA420C06FA13
:100A00000CF7BC438F6807FA0CF72743C7600C79D3
:100A100004F00304022C12D1D40800EB840CDCF89F
:100A200020405707FF0E09FA07F824EA0804D1F816
:100A3000108008FA07F848EA0408CCF82080046817
:100A40004FEA420C06FA0CF7BC430F7907F0030794
:100A500007FA0CF7274307604C6814F4403F70D046
:100A60003C4C276847F480472760246822F003073E
:100A700004F480440094384C07EB040CDCF808487C
:100A800097074FEA177809FA08F7BC43334FB84283
:100A900002D1002724E054E0314FB84201D10127B0
:100AA0001EE0304FB84201D1022719E02E4FB84264
:100AB00001D1032714E02D4FB84201D104270FE0E4
:100AC0002B4FB84201D105270AE02A4FB84201D185
:100AD000062705E0284FB84201D1072700E0082784
:100AE00007FA08F72743CCF80878DAF800405746A9
:100AF000D1F804C09C435FEACC3C00D51C433C6069
:100B0000DBF800405F46D1F804C09C435FEA8C3CB0
:100B100000D51C433C60DEF800407746D1F804C0A5
:100B20009C435FEACC2C00D51C433C60084F0C373B
:100B30003C68D1F804C09C435FEA8C2C00D51C4370
:100B40003C60521C102AFFF42FAFBDE8F88F000064
:100B5000003C0140443802400030014000000240A7
:100B60000004024000080240000C02400010024055
:100B70000014024000180240001C02400AB18161CA
:100B800070470904FBE700000148806870470000D7
:100B90005800002002488168027811448160704743
:100BA000580000200B4810B5016841F40071016045
:100BB000016841F480610160016841F48071016065
:100BC000032000F06FF80F2000F006F800F024F882
:100BD000002010BD003C024070B50D4D04464FF49E
:100BE0007A712878B1FBF0F00A490968B1FBF0F09E
:100BF00000F00AFB48B9102C07D200222146501EF3
:100C000000F030F800206C6070BD012070BD000065
:100C100058000020640000200A4808B5016841F42B
:100C200080410160006800F4804000900548001F8A
:100C3000016841F080510160006800F08050009030
:100C400008BD000044380240002809DB00F01F0204
:100C5000012191404009800000F1E020C0F800111E
:100C600070470000F0B40E4B1B680C46C3F3022320
:100C7000C3F10705042D00D90425191D072901D248
:100C8000002300E0DB1E012606FA05F1491E214083
:100C900099409E40761E16403143F0BC01F0D4BC12
:100CA0000CED00E0064900F0070208684FF6FF036C
:100CB000184040EA0220034A1043086070470000D1
:100CC0000CED00E00000FA052DE9F0470E460500A6
:100CD00065D0DFF81481D8F80000F7B200F0070003
:100CE000B04207D288F80070D8F8000000F0070082
:100CF000B04254D128683D4C810712D5400703D536
:100D0000206840F4E05020602878000703D5206870
:100D100040F4604020602068A96820F0F00008439B
:100D200020602878C0072DD030496868083901282C
:100D300012D0022813D0032811D00968890700298E
:100D40002DDA216821F0030101432160FFF71CFF28
:100D5000814641F2883A0EE009688903EFE70968A5
:100D60008901ECE7FFF710FFA0EB0901514502D91B
:100D70000320BDE8F0872068696800F00C00B0EB44
:100D8000810FEFD1D8F80010404601F00701B142C1
:100D900007D90770006800F00700B04201D00120B9
:100DA000E7E72878400705D52068E96820F4E05097
:100DB000084320602878000706D52068296920F4B8
:100DC000604040EAC100206000F038F82168084A1D
:100DD000C1F30311515CC840064908600648006829
:100DE000FFF7FAFE0020C4E7003C0240083802404A
:100DF00018300008640000205C0000200448054909
:100E000000680968044AC1F38221515CC8407047F8
:100E100064000020083802402830000804480549D2
:100E200000680968044AC1F34231515CC840704708
:100E3000640000200838024028300008154810B52A
:100E4000006810F00C02144813D04110042A0FD08F
:100E5000082A0ED10F4C241F2268236802F03F029B
:100E60005B0207D52068C0F38810A0FB010106E0F3
:100E7000084610BD2168C1F38811A1FB00010023C1
:100E8000FFF79EF92168C1F30141491C4900B0FBFD
:100E9000F1F010BD083802400024F4002DE9F84FAD
:100EA00004006ED02078DFF84C93C007A9F1040548
:100EB0004AD009F104000168C1F38101012908D079
:100EC0000068C0F3810002280AD1D9F8000040026E
:100ED00006D52868800337D560680028E1D033E064
:100EE0006068B0F5803F10D0B0F5A02F286810D012
:100EF00020F480302860286820F480202860606812
:100F0000A8B1FFF741FE06460DE0286840F48030A6
:100F1000F4E740F480202860F7E700BFFFF734FED5
:100F2000801B642873D828688003F7D50CE0FFF78E
:100F30002BFE064605E000BFFFF726FE801B642857
:100F4000F0D828688003F7D42078DFF8AC828007D7
:100F50004FF0000A3ED5A748001D016811F00C0FA4
:100F600008D00068C0F3810002280BD1D9F8000036
:100F7000400207D42868800716D5E068012800D110
:100F800012E033E1E068B8B10120C8F80000FFF7D3
:100F9000FBFD064605E000BFFFF7F6FD801B0228BB
:100FA000C0D828688007F7D52868216920F0F800A4
:100FB00040EAC10028600DE0C8F800A0FFF7E4FD9A
:100FC000064604E0FFF7E0FD801B02281FD82868D2
:100FD0008007F7D42078000722D5864F87486169BB
:100FE000703771B101210160FFF7CEFD064604E0C4
:100FF000FFF7CAFD801B022809D838688007F7D59B
:101000000EE0C0F800A0FFF7BFFD064605E082E055
:10101000FFF7BAFD801B02287DD838688007F7D417
:101020002078400768D5DFF8CCB100270BF13C0BE6
:10103000DBF80000C0000BD4DBF8001041F0805159
:10104000CBF80010DBF80000012700F08050009082
:101050006B4E3068C00510D4306840F4807030604A
:10106000FFF792FD009005E0FFF78EFD0099401A12
:10107000022850D83068C005F6D55E4EA0686C36A0
:1010800001280FD00528306810D020F00100306012
:10109000306820F004003060A068B8B1FFF774FD3C
:1010A00000900FE0306840F00100F4E740F00400E9
:1010B0003060F7E7FFF768FD0099411A41F2883088
:1010C000814266D830688007F4D50EE0FFF75CFDFA
:1010D000009007E0FFF758FD0099411A41F288306F
:1010E000814256D830688007F4D42FB1DBF8001065
:1010F00021F08051CBF80010A069C8B33D49091D0B
:101100000968C1F3810102294AD00228504607D05C
:10111000C8F8600000E03CE0FFF736FD04463BE025
:101120004746C8F86000FFF72FFD064605E000BF00
:10113000FFF72AFD801B02282BD828688001F7D4EE
:10114000D4E907010843A16A2E4A490802EB01418C
:10115000626A41EA8211084394F82C1040EA016166
:10116000C9F8001001203866FFF70EFD044606E0BE
:101170003EE000BFFFF708FD001B022809D82868E1
:101180008001F7D534E000BFFFF7FEFC001B02280A
:1011900002D90320BDE8F88F28688001F4D427E045
:1011A0000128F7D0D9F80000E26900F480019142EB
:1011B0001CD1226A00F03F01914217D147F6C0715D
:1011C000626A0140B1EB821F10D1A26A4FF0FF3377
:1011D00000F4403103EB5202B1EB024F06D194F818
:1011E0002C1000F07060B0EB016F01D00120D1E74E
:1011F0000020CFE70438024000004742800E4742FB
:10120000007000400000FFFF10B5401EB0F1807F6D
:1012100001D3012010BD4FF0E02460610F21601761
:1012200001F012FA0020A06107202061002010BD0B
:101230007047704770B590F83C20012A32D00124E5
:1012400080F83C40022280F83D2003685A689D687F
:1012500022F070060A6832435A60134B02689A42C1
:1012600014D0B2F1804F11D0104B9A420ED0104BD7
:101270009A420BD00F4B9A4208D00F4B9A4205D09E
:101280000E4B9A4202D00E4B9A4204D1496825F087
:1012900080031943916080F83D40002180F83C10A4
:1012A000084670BD022070BD0000014000040040EF
:1012B00000080040000C00400004014000400140D4
:1012C0000018004010B5040003D094F83D0010B1A0
:1012D00007E0012010BD002084F83C00204600F00B
:1012E0001FF8022084F83D00211D206800F06EFFE9
:1012F000012084F8460084F83E0084F83F0084F81A
:10130000400084F8410084F8420084F8430084F8E7
:10131000440084F8450084F83D00002010BD000022
:1013200008B500681149884209D11148016841F0A7
:1013300004010160006800F00400009008BD0D4940
:101340008842FBD10A48001D016841F480310160E8
:101350000068002200F48030009011461820FFF74A
:1013600081FCBDE808401820FFF76EBC0008004073
:10137000403802400040014090F83D10012901D062
:1013800001207047022180F83D100168CA6842F0D0
:101390000102CA6000681149884214D0B0F1804F40
:1013A00011D00F4988420ED00E4988420BD00E4909
:1013B000884208D00D49884205D00D49884202D0A4
:1013C0000C49884204D1816801F00701062903D045
:1013D000016841F0010101600020704700000140F8
:1013E0000004004000080040000C004000040140E0
:1013F000004001400018004070B5044690F83C00E1
:101400000025012817D0012684F83C60022084F8CA
:101410003D002068826822F0770222F47F428260D9
:101420000868502838D00DDC20284FD005DC90B358
:10143000102811D14AE0022070BD302846D0402843
:101440000AD13BE060282FD070280DD0B0F5805F26
:1014500003D0B0F5005F12D0012584F83D60002074
:1014600084F83C00284670BDCB68D1E90121206892
:1014700000F01DFF2068816841F0770109E0CB682A
:10148000D1E90121206800F012FF2068816841F451
:1014900080418160E1E719E0CA684968206800F08E
:1014A000DBFF5021206806E0CA684968206800F028
:1014B000E4FF6021206800F004FFCEE7CA684968B5
:1014C000206800F0C9FF40212068F4E72268014647
:1014D0001046F0E72DE9F0410D46040003D094F8E2
:1014E0003D0018B108E00120BDE8F081002084F83B
:1014F0003C00204600F040F8022084F83D002068BF
:10150000816844F2070291438160211D206800F048
:101510005DFE226890689169166A2B68AF69034383
:1015200040F20330814341EA0721A868EF6908438C
:101530004FF6FC418843E96840EA072001432869E7
:101540002F6A000140EA0730084369686D6926F098
:10155000AA0646EA0515294393602268906154F86B
:10156000460B0162012004F81F09E0752076E07641
:101570002077A0750020B7E770B586B00446142127
:101580006846FEF755FE294923680024274A10398A
:1015900002252748B3F1804F1ED0264EB34219D101
:1015A000136843F002031360126802F0020205920E
:1015B0000A6842F001020A60096801F00101059120
:1015C000C0210091CDE901546946CDE9034500BF32
:1015D000FFF7DCF906B070BD136843F00103136038
:1015E000126802F0010205920A6842F001020A60E4
:1015F0000A6802F0010205920A6842F002020A60DB
:10160000096801260096CDE9015401F00201CDE9F7
:10161000046103946946FFF7B9F908200090CDE909
:101620000154CDE9034669460348D1E740380240FA
:1016300000000240000400400004024070B590F831
:101640003E60044690F83F5090F8423090F84320B6
:10165000022021B104290ED0012E1BD114E0012E4D
:1016600018D1012B16D184F83E0084F842000122E3
:101670000021206820E0012D0CD1012A0AD184F834
:101680003F0084F8430014E0012D03D1012B01D168
:10169000012A01D0012070BD84F83E0084F83F008B
:1016A00084F8420084F8430001220021206800F001
:1016B000F1FD01220421206800F0ECFD20680168A2
:1016C00041F001010160002070BD704770B5044613
:1016D000006801694FF00005C943890715D4C16846
:1016E000C943890711D4E91E0161012020772068D0
:1016F00080698007204602D0FFF7E7FF04E000F092
:10170000C3F8204600F055F9257720680169C943E0
:10171000490717D4C168C943490713D46FF00401BE
:101720000161022020772068806910F4407F204604
:1017300002D0FFF7CAFF04E000F0A6F8204600F050
:1017400038F9257720680169C943090716D4C168AB
:10175000C943090712D46FF0080101610420207702
:101760002068C0698007204602D0FFF7AEFF04E082
:1017700000F08AF8204600F01CF9257720680169FE
:10178000C943C90617D4C168C943C90613D46FF049
:1017900010010161082020772068C06910F4407FA3
:1017A000204602D0FFF791FF04E000F06DF82046DC
:1017B00000F0FFF8257720680169C943C90708D1FF
:1017C000C168C943C90704D1891E0161204600F0E0
:1017D00055F920680169C943090609D4C168C9439C
:1017E000090605D46FF0800101612046FFF720FD56
:1017F00020680169C943490609D4C168C94349063B
:1018000005D46FF040010161204600F038F92068EE
:101810000169C94389060BD4C168C943890607D445
:101820006FF0200101612046BDE87040FFF701BD67
:1018300070BD000010B586B0044614216846FEF75E
:10184000F7FC0E492068884215D10D480021026836
:1018500042F008020260006800F0080005904FF4B2
:10186000405000900220CDE90101039004906946A8
:101870000448FFF78BF806B010BD000000080040D8
:1018800030380240000C0240704770B5044690F8B2
:101890003C0000260D4601280FD0012084F83C00B2
:1018A0006AB1042A1DD0082A2FD00C2A3FD0012665
:1018B000002084F83C00304670BD022070BD2068D6
:1018C00000F008FD2068816941F00801816120680D
:1018D000816921F004018161206881692A691143CD
:1018E00011E0206800F026FD2068816941F4006164
:1018F00081612068816921F480618161206881694A
:101900002A6941EA02218161D2E7206800F048FD9E
:101910002068C16941F00801C1612068C16921F0F6
:101920000401C1612068C1692A69114311E020687E
:1019300000F06AFD2068C16941F40061C16120685E
:10194000C16921F48061C1612068C1692A6941EAE5
:101950000221C161ACE710B5040003D094F83D004A
:1019600010B107E0012010BD002084F83C002046A3
:1019700000F01EF8022084F83D00211D206800F0D0
:1019800025FC012084F8460084F83E0084F83F00DE
:1019900084F8400084F8410084F8420084F8430051
:1019A00084F8440084F8450084F83D00002010BD10
:1019B0007047704710B50446022249B104290ED081
:1019C000082913D094F84100012816D0012010BD39
:1019D00094F83E000128F9D184F83E200FE094F8F5
:1019E0003F000128F2D184F83F2008E094F840003D
:1019F0000128EBD184F8402001E084F84120012245
:101A0000206800F047FC16492068164A884201D039
:101A1000904203D1436C43F40043436420688842FE
:101A200013D0B0F1804F10D00F4988420DD00F492C
:101A300088420AD00E49884207D0904205D00D490D
:101A4000884202D00C49884204D1816801F0070124
:101A5000062903D0016841F001010160002010BD9A
:101A60000000014000040140000400400008004064
:101A7000000C0040004001400018004070477047D3
:101A800070B5040004D094F83D00002510B106E0C4
:101A9000012070BD84F83C50204600F023F824203B
:101AA00084F83D002068C16821F40051C1602046DF
:101AB00000F0F6FC2068016921F490410161206882
:101AC000416921F02A0141612068C16841F4005157
:101AD000C1602564202084F83D0084F83E00002089
:101AE00070BD000010B586B0044614216846FEF7AC
:101AF0009FFB14492068884221D1134800210268C5
:101B000042F010020260006800F0100005900E48DC
:101B10001438026842F001020260006800F001001F
:101B200005904FF4C06000900220CDE90101032030
:101B300003900720049069460448FEF727FF06B08B
:101B400010BD000000100140443802400000024077
:101B50002DE9F843044690F83D001F4616460D4611
:101B600020284CD1C5B1BEB194F83C00012846D024
:101B7000012084F83C004FF00008C4F84080212088
:101B800084F83D00FFF700F8A6848146E684A0684B
:101B9000B0F5805F03D004E00120BDE8F883206940
:101BA00028B12E465FF0000584F83C800EE0002648
:101BB000FAE78021204600F0F9FCA0B9AEB116F892
:101BC000010B21684860E08C401EE084E08C4B46AD
:101BD0004FF0000200970028EBD14FF04001204663
:101BE00000F0E4FC30B10320D7E735F8020BC0F376
:101BF0000800E6E7202084F83D000020CDE7022021
:101C0000CBE7FEE7081A00EE100A17481749B8EEAE
:101C1000C00A90ED021AD1ED001A154970EE410A82
:101C2000B0EE002A60EEA10AD1ED001A114941EE92
:101C3000800AF0EE401A41EE421A90ED031A31EE9E
:101C4000811AD1ED001A41EE810A90ED011A70EE71
:101C5000810AC0ED010A80ED020A80ED030ABDEEA3
:101C6000E00A10EE100A704704000020280000204F
:101C70002C00002050000020081A00EE100A17481F
:101C80001749B8EEC00A90ED061AD1ED001A1549B1
:101C900070EE410AB0EE002A60EEA10AD1ED001A02
:101CA000114941EE800AF0EE401A41EE421A90EDE1
:101CB000071A31EE811AD1ED001A41EE810A90ED3A
:101CC000051A70EE810AC0ED050A80ED060A80ED66
:101CD000070ABDEEE00A10EE100A7047040000206B
:101CE000280000202C0000205000002010B50C4CD3
:101CF00001280DD0002812D1012202212046FEF732
:101D00003DFF00222046BDE810400421FEF736BF0B
:101D1000002202212046FEF731FF0122F2E710BD2A
:101D20000000024030B587B014216846FEF780FA03
:101D300019480024016841F080010160016801F048
:101D400080010591016841F001010160016801F025
:101D500001010591016841F008010160016801F08D
:101D600008010591016841F00201016000680B4D16
:101D700000F00200059000221E212846FEF7FEFE1C
:101D80001E2000900120CDE90104694628460394F5
:101D9000FEF7FCFD07B030BD3038024000000240C5
:101DA00010B58CB024216846FEF742FA002415488D
:101DB00009944FF080410A94C0E90014611EC0E903
:101DC0000241046184610320CDE900040120CDE9D2
:101DD00002040A210491CDE90540CDE90741694695
:101DE0000848FFF777FB08B1FEF7B1FD099409A990
:101DF00004480A94FFF71EFA002801D0FEF7A7FD59
:101E00000CB010BD6800002010B58CB024216846CD
:101E1000FEF70EFA00241648099414490A94C0E902
:101E200000144FF6FF71C0E9024104618461032090
:101E3000CDE900040120CDE902040A210491CDE995
:101E40000540CDE9074169460948FFF743FB08B162
:101E5000FEF77DFD099409A905480A94FFF7EAF900
:101E6000002801D0FEF773FD0CB010BD0004004047
:101E7000B000002010B58EB0002407940894099497
:101E80000A940B941C2168460C94FEF7D1F9224861
:101E900020490160A721C0E901146321C0E90314AE
:101EA00080218161FFF70EFA08B1FEF750FD4FF473
:101EB0008050079007A91848FFF79EFA08B1FEF76F
:101EC00046FD1548FFF747FD08B1FEF740FD0B94AE
:101ED0000BA911480C94FFF7ADF908B1FEF737FDD7
:101EE0006020CDE900040294002269460A48049467
:101EF000FFF7CBFC08B1FEF72AFD0422694606482D
:101F0000FFF7C3FC08B1FEF722FD0348FFF792FC80
:101F10000EB010BD00080040F80000201FB50021E1
:101F200010480091019102910D4A0391026044F220
:101F30009F12C0E901216422C0E903218161FFF7FA
:101F4000C1F908B1FEF703FD4FF4805000906946D7
:101F50000448FFF751FA002801D0FEF7F8FC1FBD36
:101F600000400140400100200C4810B50A490160C2
:101F70004FF4E1314160002181600C22C160C0E971
:101F800004128161C161FFF77BFD002803D0BDE829
:101F90001040FEF7DCBC10BD00100140880100209D
:101FA000FEE7FEE77047000010B50C4C01280DD08D
:101FB000002812D1012208212046FEF7DFFD002271
:101FC0002046BDE810401021FEF7D8BD00220821B0
:101FD0002046FEF7D3FD0122F2E710BD00000240CB
:101FE0007047000010B5040001D5002000E001207A
:101FF000FFF77CFE204601F00BF8024909684863B0
:1020000010BD0000F800002010B5040001D500202C
:1020100000E00120FFF7C8FF204600F0F9FF024969
:102020000968886310BD0000F8000020FEF7B2BD0B
:1020300030B593B030216846FEF7FAF814210CA8A9
:10204000FEF7F6F81D480025016841F08051016057
:10205000006800F0805011901948016841F48041F7
:1020600001600068022400F4804011900120039078
:1020700010200490009406940820CDE90750A82071
:10208000CDE9090404200B906846FEF707FF08B16C
:1020900072B6FEE70CA90F2081E831004FF4A05082
:1020A0000F904FF48050109005210CA8FEF70CFE05
:1020B000002801D072B6FEE713B030BD40380240B0
:1020C000007000400248016841F4700101607047EF
:1020D00088ED00E070B52DED028B2548FFF7F6FA8C
:1020E000FEF746FC234D2860FEF734FC224C2060AE
:1020F00022A0296800F098FA24A0216800F094FA40
:10210000286841F270714843FEF77EF99FED238BFA
:1021100053EC182BFEF709F9FEF7B9F905462068CC
:1021200041F270714843FEF76FF953EC182BFEF73C
:10213000FCF8FEF7ACF904462846FEF795F941ECA9
:10214000100B18A053EC102B00F06EFA2046FEF78F
:102150008BF941EC100B18A053EC102B00F064FA33
:10216000FEF778FBBDEC028BBDE87040FEF7B0BB1C
:1021700040010020440000204000002052696768B0
:10218000742054494D3D2564090A00004C6566746D
:102190002054494D3D2564090A000000000000005C
:1021A00000307140726D705F72696768743D252EF2
:1021B0003366090A00000000726D705F6C6566741A
:1021C0003D252E3366090A0A00000000F0B50268BA
:1021D000254C264D264E274F274B4FF0804CA042D2
:1021E00009D0604507D0A84205D0B04203D0B8421C
:1021F00001D0984204D122F0700E4A6842EA0E02E1
:10220000A0421BD0604519D0A84217D0B04215D0CB
:10221000B84213D0984211D0184DA8420ED0184D94
:10222000A8420BD0174DA84208D0174DA84205D0A0
:10223000164DA84202D0164DA84203D122F4407593
:10224000CA682A434D6922F080022A4302608A68E4
:10225000C2620A688262A04201D0984201D1096933
:10226000016301214161F0BD000001400004004014
:1022700000080040000C0040000401400040014004
:10228000004401400048014000180040001C00408C
:102290000020004010B501F01F030121046A99409D
:1022A0008C430462016A9A401143016210BD10B56B
:1022B000846842EA032224F47F440A432243826072
:1022C00010BD826822F070020A4342F0070181606B
:1022D00070470000F0B5026A22F001020262036A50
:1022E00042688469124E24F073050C682C4323F075
:1022F00002058B682B430D4DA84201D0B04205D199
:1023000023F00807CB683B4323F00403A84201D025
:10231000B04205D14D6922F4407215438A692A43BF
:1023200042608461496841630362F0BD000001407E
:1023300000040140F0B5026A22F010020262026A53
:10234000436884690D6824F4E64444EA05248D68F2
:1023500022F0200242EA05120F4D104EA84201D091
:10236000B04206D1CF6822F0800242EA071222F082
:102370004002A84201D0B04207D14D6923F4406326
:1023800043EA85038D6943EA8503436084614968B4
:1023900081630262F0BD00000000014000040140C2
:1023A000F0B5026A22F480720262026A4368C4696C
:1023B00022F4007224F073050C68124E2C438D68D1
:1023C00042EA05220E4DA84201D0B04206D1CF68A4
:1023D00022F4006242EA072222F48062A84201D07D
:1023E000B04207D14D6923F4405343EA05138D6988
:1023F00043EA05134360C4614968C1630262F0BDEA
:10240000000001400004014030B5026A22F480520D
:102410000262046A4268C3690D6823F4E64343EA32
:1024200005238D6824F4005444EA0534084DA8427D
:1024300002D0084DA84204D14D6922F4804242EAFC
:1024400085124260C36149680164046230BD0000C6
:10245000000001400004014010B5036A046A24F042
:1024600001040462846924F0F00444EA021423F0B5
:102470000A020A438461026210BD10B5036A23F0A8
:10248000100303628369046A23F4704343EA02324F
:1024900024F0A00343EA01118261016210BD000033
:1024A00070B5044600680169E26821F440511143A7
:1024B00001612169A068E269084361691143084329
:1024C0002168CA6849F20C639A430243CA602068D3
:1024D0004169A26921F44071114341613149206889
:1024E000884202D03049884202D1FEF797FC01E0D1
:1024F000FEF784FCE2690023192164253226B2F537
:10250000004F626828D0A0FB0101930F9200FDF7F5
:1025100057FE0146B0FBF5F06FF01802504301EB97
:10252000800006EB0010B0FBF5F000F0F002B1FB0C
:10253000F5F002EB0012B1FBF5F06FF01803584311
:1025400001EB800006EB0010B0FBF5F000F00F008F
:1025500021681044886070BDA0FB010192185B41A6
:10256000FDF72EFE0146B0FBF5F00201B1FBF5F0E0
:102570006FF01803584301EB800006EBC000B0FB7E
:10258000F5F000F0F80002EB4002B1FBF5F0584323
:1025900001EB800006EBC000B0FBF5F000F0070097
:1025A000D6E7000000100140001401402DE9F04181
:1025B000984617460E460446069D27E0681C25D01F
:1025C0002DB1FEF7E1FAA0EB0800A8421ED9206861
:1025D0000C3050E8001F21F4D07140E80012002AAE
:1025E000F5D12068143050E8001F21F0010140E8C7
:1025F0000012002AF5D1202084F83D0084F83E0026
:10260000002084F83C000320BDE8F08120680068C9
:1026100036EA000004D00020B842CFD00020F3E713
:102620000120F9E7FEE700000FB4054B10B503A940
:10263000044A029800F0DAF810BC5DF814FB0000C0
:10264000512F0008540000200907090E002804DB60
:1026500000F1E02080F80014704700F00F0000F156
:10266000E02080F8141D704702E008C8121F08C15E
:10267000002AFAD170477047002001E001C1121F03
:10268000002AFBD1704700002DE9FF5FDDE9022041
:10269000010DDDF838B0024318D044F61050A1F215
:1026A000FF3141430D140F98012820D0A5EB0B00FA
:1026B000401C5FEA000A4FF00004474EDFF81C910F
:1026C000A046504616D5CAF1000728E00F9801240D
:1026D00043A2012808D0002100980F9BC0E90021E7
:1026E000C0E90243BDE8FF9F6FEA0B01F4E7CBF1BD
:1026F0000000DEE7074612E0F80707D0224633461F
:1027000040464946FDF79FFD8046894622463346AE
:1027100010461946FDF797FD04460E467F10002F20
:10272000EAD1DDE90201BAF1000F42464B4602DA76
:10273000FDF789FD01E0FDF7F8FD04460E46002295
:10274000284BFEF749F803D84FF0FF30014607E069
:102750000022254B20463146FDF77EFFFEF723F889
:10276000102409E0002C0ADB0A220023FDF728FDD3
:10277000019B30321A55641E50EA0102F2D1641CEA
:10278000019AC4F1110314440F9A012A03D00122C3
:1027900008430DD10AE0084304D000204FF0110B8C
:1027A0000F9080E7A3EB0B056D1E0DE05B4504DD8C
:1027B0004FF0000205F1010504E003DA4FF00002DA
:1027C000A5F10105002AECD000980F99C0E902316B
:1027D000C0E9004586E70000000024400000F03F0B
:1027E000300000000000F0430000E03F2DE9FF4F03
:1027F00095B09B468946064600250FE2252877D1ED
:1028000000242746F84A0121059400E0044316F805
:10281000013F203B01FA03F01042F7D130782A281B
:1028200011D06FF02F033078A0F13002092A16D8AA
:10283000059A44F0020402EB820203EB42021044C8
:10284000761C0590EFE759F8042B0592002A03DA6D
:10285000504244F40054059044F00204761C307851
:102860002E2816D116F8010F44F004042A280DD0A2
:102870006FF02F023078A0F13003092B09D807EB55
:10288000870302EB4303C718761CF3E759F8047B70
:10289000761C30786C280FD006DC4C2817D06828BE
:1028A0000DD06A2814D104E0742810D07A280FD1F2
:1028B0000DE044F400140AE044F4801401E044F410
:1028C00040147278824202D104F58014761C761C82
:1028D000307866280BD013DC582877D009DC002824
:1028E00075D04528F6D04628F4D047281AD19DE166
:1028F00018E0632835D0642879D0652812D195E195
:10290000702873D008DC6728F1D069286FD06E2852
:102910000DD06F2806D1B5E073282CD0752875D05E
:10292000782874D05A46179990476D1C75E1C4F306
:102930000250022809D003280DD0D9F8001004282D
:102940000DD00D6009F1040967E1D9F80010EA170C
:10295000C1E90052F6E7D9F800100D80F2E70D70DA
:10296000F0E719F8041B8DF8001000208DF8010025
:10297000EA46012003E059F804AB4FF0FF3061074D
:102980004FF0000102D40DE008F101018846B94280
:102990000FDA8045F8DB1AF808100029F4D108E0B6
:1029A00008F1010188468142FADB1AF80810002973
:1029B000F6D105985B46A0EB080721463846179AE2
:1029C00000F094FA284400EB080507E04DE029E107
:1029D0000DE01AF8010B5A4617999047B8F1010813
:1029E000F7D25B4621463846179A13E142E00A22A5
:1029F0000092C4F302524FF0000A022A08D059F89C
:102A000004CB032A4FEAEC710AD00DE029E02AE05A
:102A100009F1070121F00702F2E802C1914609E03D
:102A20000FFA8CFC4FEAEC71042A03D14FFA8CFCAC
:102A30004FEAEC71002907DA0A460021DCF1000CAC
:102A400061EB02012D2202E0220504D52B228DF834
:102A50000420012203E0E20701D02022F7E790469C
:102A600059E00A2102E010220DE010214FF0000A87
:102A700000910BE010224FF0000A44F004040827F4
:102A8000009203E008224FF0000A0092C4F30252C1
:102A9000022A05D059F804CB0021032A08D009E006
:102AA00009F1070121F00702F2E802C1914605E0B1
:102AB0001FFA8CFC042A01D10CF0FF0C4FF0000827
:102AC000220728D5702806D0009B83F0100353EA14
:102AD0000A0305D00EE040228DF80420012208E010
:102AE0005CEA010206D030228DF804208DF8050042
:102AF00002229046009B83F0080353EA0A030AD19E
:102B00005CEA010201D1620705D530228DF804206C
:102B10004FF001087F1E582804D034A003900EA85F
:102B200002900DE036A0F9E753466046009AFDF7A3
:102B300047FB84460398825C0298401E0290027014
:102B40005CEA0100F0D1029806A9081A00F1200AF7
:102B5000600702D524F4803400E00127574502DDE8
:102B6000A7EB0A0000E0002000EB0A0100900598A6
:102B70004144401A0590E00306D45B462146179A6B
:102B8000059800F0B3F90544002706E001A85A466D
:102B9000C05D179990476D1C7F1C4745F6DBE0032D
:102BA0000CD55B462146179A059800F09FF905441D
:102BB00004E030205A46179990476D1C0099481E32
:102BC00000900029F5DC08E0029802995A46007846
:102BD000491C0291179990476D1CBAF10001AAF1A6
:102BE000010AF1DC65E100000928010030313233CF
:102BF0003435363738396162636465660000000039
:102C00003031323334353637383941424344454622
:102C10000000000000F058F90544761C30780028C8
:102C20007FF4ECAD19B02846BDE8F08F620700D400
:102C3000062709F1070222F0070CFCE80223E1460F
:102C400003F000485FEA080C02D00FF2702C0DE090
:102C50005FEA045C02D50FF2682C07E05FEAC47CEF
:102C600002D00FF2602C01E0AFF2700C4FF0FF3891
:102C700023F00043CDF850C065280CD006DC452871
:102C800009D046281DD047283DD13DE0662818D000
:102C900067287ED138E00021112F01DB112000E0F0
:102CA000781CCDE9000106A90EA8FFF7EDFCDDE9CF
:102CB0000F010E9A03910021009207F1010A04917D
:102CC0004DE04FF000400097CDE9011006A90EA895
:102CD000FFF7DAFCDDE90F0203920E9B1199002247
:102CE000DDF80CA00093049211B9791C00EB010AE5
:102CF000B7EB0A0004D4C0F1FF3007F1010A0490D9
:102D0000AAEB0700019044E0012F00DA012700211F
:102D1000112F01DD112000E03846CDE9000106A9A0
:102D20000EA8FFF7B1FCDDE90F010E9A0391002117
:102D300004910092BA4621070CD40399514500DA58
:102D40008A46BAF1010F05DD009AAAF10101515C32
:102D5000302908D0B84202DA10F1040F06DA012156
:102D6000CDE9011015E0AAF10101E9E7002805DC31
:102D7000049901440491AAEB000102E0411C514571
:102D800000DD8A460499401A401C01904FF0004033
:102D90000290200704D40198504501DBCDF804804F
:102DA00000208DF84F0002980DF14F07B0F1004F51
:102DB00025D02B200E9002984FF0020800280CDA44
:102DC000404202902D200E9007E00A210298FDF764
:102DD0007AFB3031029007F8011DB8F10001A8F12B
:102DE0000108F2DC02980028EFD1791E0E980870D5
:102DF000307800F0200040F0450007F8020D12A8DE
:102E0000C01B00F107081498007800B1012000EB06
:102E10000A01019801EBE07105984144401A401EF7
:102E20000590E00306D45B462146179A059800F00A
:102E30005DF805441498007818B15A4617999047E0
:102E40006D1CE00324D55B462146179A059800F0D7
:102E50004DF805441CE00498002807DBDDE9030178
:102E6000884203DD0098405C179901E017993020F3
:102E70005A469047049805F10105401C04900198BA
:102E8000401E019004D12E205A46179990476D1C80
:102E9000BAF10001AAF1010ADDDC05E017F8010B27
:102EA0005A46179990476D1CB8F10001A8F1010826
:102EB000F4DC5B462146179A0598ABE62D0000002E
:102EC0002B000000200000002DE9F0410446002501
:102ED0001E461746880404D405E039462020B04732
:102EE0006D1C641EF9D52846BDE8F0812DE9F0413E
:102EF000044600251E469046C80301D5302700E051
:102F00002027880404D505E041463846B0476D1CAB
:102F1000641EF9D52846BDE8F081000010B50B4CC1
:102F2000002202212046FDF729FE0122042120462D
:102F3000FDF724FE002208212046FDF71FFE204653
:102F40000122BDE810401021FDF718BE000002402C
:102F500013B54FF47A73012269460248FEF7F8FD73
:102F600000981CBD880100200548C8225342016812
:102F7000994201DA03607047C829FCDD026070479E
:102F8000380000200548C82253420168994201DAFE
:102F900003607047C829FCDD026070473C000020D8
:102FA000FDF700FEFFF744F8FEF7BCFEFEF762FFF8
:102FB000FEF7F6FEFEF7D8FFFEF7B0FFFEF724FFA0
:102FC0003C210E48FEF73AFB3C210D48FEF736FB4C
:102FD00000210C48FEF7EEFC04210A48FEF7EAFC4B
:102FE0000948016807480268516300688163FFF778
:102FF00095FF0648FEF7C0F9FEE7000068000020D4
:10300000B0000020F8000020240000204001002033
:10301000002800DA40427047000000000000000075
:10302000010203040607080900000000010203046E
:1030300050300008000000206800000068260008EA
:10304000B8300008680000206805000078260008F5
:103050000000000000000000000000000000000070
:103060000000000000000000000000000000000060
:10307000000000003C0000009A99193FA69BC43B49
:1030800098FEFFFF98FEFFFF000000000000000018
:103090000000000000000000000000000000000030
:1030A000000000000000000001000000100000000F
:0830B000000000000024F40000
:040000050800018965
:00000001FF
